{
  "contractName": "Career",
  "abi": [
    {
      "inputs": [],
      "payable": false,
      "stateMutability": "nonpayable",
      "type": "constructor"
    },
    {
      "constant": false,
      "inputs": [
        {
          "name": "name",
          "type": "string"
        }
      ],
      "name": "addPerson",
      "outputs": [
        {
          "name": "",
          "type": "string[]"
        }
      ],
      "payable": false,
      "stateMutability": "nonpayable",
      "type": "function"
    },
    {
      "constant": false,
      "inputs": [],
      "name": "getPerson",
      "outputs": [
        {
          "name": "",
          "type": "string[]"
        }
      ],
      "payable": false,
      "stateMutability": "nonpayable",
      "type": "function"
    }
  ],
  "bytecode": "0x608060405234801561001057600080fd5b5060008060018154018082558091505090600182039060005260206000200160006040805190810160405280600381526020017f74747400000000000000000000000000000000000000000000000000000000008152509091909150908051906020019061007f929190610086565b505061012b565b828054600181600116156101000203166002900490600052602060002090601f016020900481019282601f106100c757805160ff19168380011785556100f5565b828001600101855582156100f5579182015b828111156100f45782518255916020019190600101906100d9565b5b5090506101029190610106565b5090565b61012891905b8082111561012457600081600090555060010161010c565b5090565b90565b6105e48061013a6000396000f30060806040526004361061004c576000357c0100000000000000000000000000000000000000000000000000000000900463ffffffff1680630bf2ee8d146100515780638ec4dc951461008e575b600080fd5b34801561005d57600080fd5b50610078600480360361007391908101906103c7565b6100b9565b60405161008591906104ac565b60405180910390f35b34801561009a57600080fd5b506100a36101e3565b6040516100b091906104ac565b60405180910390f35b606060008290806001815401808255809150509060018203906000526020600020016000909192909190915090805190602001906100f89291906102cc565b50506000805480602002602001604051908101604052809291908181526020016000905b828210156101d8578382906000526020600020018054600181600116156101000203166002900480601f0160208091040260200160405190810160405280929190818152602001828054600181600116156101000203166002900480156101c45780601f10610199576101008083540402835291602001916101c4565b820191906000526020600020905b8154815290600101906020018083116101a757829003601f168201915b50505050508152602001906001019061011c565b505050509050919050565b60606000805480602002602001604051908101604052809291908181526020016000905b828210156102c3578382906000526020600020018054600181600116156101000203166002900480601f0160208091040260200160405190810160405280929190818152602001828054600181600116156101000203166002900480156102af5780601f10610284576101008083540402835291602001916102af565b820191906000526020600020905b81548152906001019060200180831161029257829003601f168201915b505050505081526020019060010190610207565b50505050905090565b828054600181600116156101000203166002900490600052602060002090601f016020900481019282601f1061030d57805160ff191683800117855561033b565b8280016001018555821561033b579182015b8281111561033a57825182559160200191906001019061031f565b5b509050610348919061034c565b5090565b61036e91905b8082111561036a576000816000905550600101610352565b5090565b90565b600082601f830112151561038457600080fd5b8135610397610392826104fb565b6104ce565b915080825260208301602083018583830111156103b357600080fd5b6103be838284610557565b50505092915050565b6000602082840312156103d957600080fd5b600082013567ffffffffffffffff8111156103f357600080fd5b6103ff84828501610371565b91505092915050565b600061041382610534565b8084526020840193508360208202850161042c85610527565b60005b84811015610465578383038852610447838351610476565b92506104528261054a565b915060208801975060018101905061042f565b508196508694505050505092915050565b60006104818261053f565b808452610495816020860160208601610566565b61049e81610599565b602085010191505092915050565b600060208201905081810360008301526104c68184610408565b905092915050565b6000604051905081810181811067ffffffffffffffff821117156104f157600080fd5b8060405250919050565b600067ffffffffffffffff82111561051257600080fd5b601f19601f8301169050602081019050919050565b6000602082019050919050565b600081519050919050565b600081519050919050565b6000602082019050919050565b82818337600083830152505050565b60005b83811015610584578082015181840152602081019050610569565b83811115610593576000848401525b50505050565b6000601f19601f83011690509190505600a265627a7a72305820e07e2d9027bbae55156462bb27c8e96fe6d3ef8c8d7a8f59a165e46b73b086596c6578706572696d656e74616cf50037",
  "source": "pragma solidity ^0.4.18;\npragma experimental ABIEncoderV2;\n\ncontract Career {\n    string[] people;\n\n    constructor() public {\n        people.push(\"ttt\");\n    }\n\n    function addPerson(string name) public returns(string[]){\n        people.push(name);\n        return people;\n    }\n\n    function getPerson() public returns(string[]){\n        return people;\n    }\n    \n}\n",
  "sourcePath": "/Users/soyoung/sample/contracts/Career.sol",
  "compiler": {
    "name": "solc",
    "version": "0.4.24+commit.e67f0147.Emscripten.clang"
  },
  "schemaVersion": "2.0.0",
  "updatedAt": "2018-06-17T09:45:29.759Z"
}